S01700005265616C2054696D6520436C6F636B2E73726563CE
S11300000C942A000C9447000C9447000C9447006D
S11300100C9447000C9497020C9447000C944700EE
S11300200C9447000C9447000C9447000C94470030
S11300300C9447000C9447000C9447000C94470020
S11300400C9447000C9447000C9447000C94470010
S11300500C94470011241FBECFE5D8E0DEBFCDBF0E
S113006010E0A0E6B0E0E0EAFBE002C005900D92EB
S1130070AC3BB107D9F720E0ACEBB0E001C01D9276
S1130080A23CB207E1F70E94DD000C94CE050C946B
S1130090000084E460E041E00E94A80284E461E09E
S11300A041E00E94A80284E462E041E00E94A802C8
S11300B084E463E041E00E94A80284E464E040E058
S11300C00E94A80284E465E040E00E94A80284E45F
S11300D066E040E00E94A80284E467E040E00E94F9
S11300E0A80284E464E041E00E94030484E465E03F
S11300F041E00E94030484E466E041E00E940304BA
S113010084E467E041E00E94030408950F931F9381
S1130110CF93DF93CDB7DEB760970FB6F894DEBF09
S11301200FBECDBFDE011196E0E6F0E080E1019064
S11301300D928150E1F700E084E460E041E00E9428
S1130140180384E461E041E00E94180384E462E05F
S113015041E00E94180384E463E041E00E94180334
S113016084E4602F40E00E94180310E0612F6C5F6C
S113017084E40E948803882361F4E02FF0E0EE0F0A
S1130180FF1FEE0FFF1FE10FF11DEC0FFD1F81811B
S113019004C01F5F143051F70BC060960FB6F8947B
S11301A0DEBF0FBECDBFDF91CF911F910F91089598
S11301B00F5F043009F68FEFF0CF0E9449000E94D0
S11301C0D20482E40E948B05A09AA19AA29AA39ACF
S11301D0A49AA59A80E790E00E94530582E061E02A
S11301E00E946C058BE790E00E9453050E94B405C1
S11301F00F2EF4EACF2EF0E0DF2EF02D00E710E012
S11302000F2EFBE7EF2EF0E0FF2EF02D0F2EF5E87A
S1130210AF2EF0E0BF2EF02D0F2EFEE88F2EF0E073
S11302209F2EF02D0F2EF9E96F2EF0E07F2EF02D8A
S1130230CAE00E9486008093C1008F3F09F4DBC0AE
S1130240813309F0BEC00E946205C5010E945305B6
S113025081E067E00E946C058FEF94E3ACE081508D
S11302609040A040E1F700C000000E948600809307
S1130270BF008F3FD1F30E9431058FEF92E5A7E0D5
S113028081509040A040E1F700C000000E94860029
S11302908093C0008F3FD1F30E9431058FEF92E528
S11302A0A7E081509040A040E1F700C00000909189
S11302B0C00090518091BF00880F282F220F220F79
S11302C0820F890F8093BC000E946205C4010E94C2
S11302D0530581E069E00E946C050E9486008093CA
S11302E0BF008F3FD1F30E9431058FEF92E5A7E065
S11302F081509040A040E1F700C000000E948600B9
S11303008093C0008F3FD1F30E9431058FEF92E5B7
S1130310A7E081509040A040E1F700C00000909118
S1130320C00090518091BF00880F282F220F220F08
S1130330820F890F8093BD000E946205C3010E9451
S1130340530581E069E00E946C050E948600809359
S1130350BF008F3FD1F30E9431058FEF92E5A7E0F4
S113036081509040A040E1F700C000000E94860048
S11303708093C0008F3FD1F30E9431058FEF92E547
S1130380A7E081509040A040E1F700C000009091A8
S1130390C00090518091BF00880F282F220F220F98
S11303A0820F890F8093BE000E946205C8010E94DB
S11303B0530582E061E00E946C05C7010E94530569
S11303C01AC00E946205C6010E9453058FEF99E688
S11303D0A8E181509040A040E1F700C000000E94D5
S11303E06205C8010E94530582E061E00E946C0529
S11303F0C7010E945305A99AAA9AAB9AAC9AAD9ADE
S1130400A8988091BE006C2F0E94C20582E4692FD7
S11304100E948F05AFE0B7E21197F1F700C000002A
S1130420A89AAA9AAB9AAC9AAD9AA9988091BE0060
S11304306C2F0E94C205682F82E40E948F058FE012
S113044097E20197F1F700C00000A89AA99AAB9A25
S1130450AC9AAD9AAA988091BD006C2F0E94C205F7
S113046082E4692F0E948F05AFE0B7E21197F1F79C
S113047000C00000A89AA99AAA9AAC9AAD9AAB981F
S11304808091BD006C2F0E94C205682F82E40E94F7
S11304908F058FE097E20197F1F700C00000A89A5A
S11304A0A99AAA9AAB9AAD9AAC988091BC006C2F89
S11304B00E94C20582E4692F0E948F05AFE0B7E273
S11304C01197F1F700C00000A89AA99AAA9AAB9ACA
S11304D0AC9AAD988091BC006C2F0E94C205682F25
S11304E082E40E948F058FE097E20197F1F700C044
S11304F000008091BE008C3339F41092BE008091CC
S1130500BD008F5F8093BD008091BD008C3339F4B2
S11305101092BD008091BC008F5F8093BC008091DD
S1130520BC00883109F085CE1092BC0082CE1F92A7
S11305300F920FB60F9211248F938091BE008F5F9C
S11305408093BE008F910F900FBE0F901F9018954F
S1130550823419F118F4813439F008958334B1F1F7
S1130560843409F44CC00895413059F42AB381E02D
S113057090E002C0880F991F6A95E2F7822B8ABB2C
S113058008952AB381E090E002C0880F991F6A950C
S1130590E2F7809582238ABB0895413059F427B34A
S11305A081E090E002C0880F991F6A95E2F7822BE0
S11305B087BB089527B381E090E002C0880F991F9C
S11305C06A95E2F78095822387BB0895413059F4F8
S11305D024B381E090E002C0880F991F6A95E2F786
S11305E0822B84BB089524B381E090E002C0880F7D
S11305F0991F6A95E2F78095822384BB0895413060
S113060059F421B381E090E002C0880F991F6A95E4
S1130610E2F7822B81BB089521B381E090E002C010
S1130620880F991F6A95E2F78095822381BB08950C
S1130630823419F118F4813439F008958334B1F116
S1130640843409F44CC00895413059F42BB381E04B
S113065090E002C0880F991F6A95E2F7822B8BBB4A
S113066008952BB381E090E002C0880F991F6A952A
S1130670E2F7809582238BBB0895413059F428B367
S113068081E090E002C0880F991F6A95E2F7822BFF
S113069088BB089528B381E090E002C0880F991FB9
S11306A06A95E2F78095822388BB0895413059F416
S11306B025B381E090E002C0880F991F6A95E2F7A4
S11306C0822B85BB089525B381E090E002C0880F9A
S11306D0991F6A95E2F78095822385BB089541307E
S11306E059F422B381E090E002C0880F991F6A9503
S11306F0E2F7822B82BB089522B381E090E002C02E
S1130700880F991F6A95E2F78095822382BB08952A
S11307108234D9F018F4813431F04DC0833439F186
S11307208434B9F148C029B381E090E0062E02C0B8
S1130730880F991F0A94E2F730E08223932302C0C2
S1130740959587956A95E2F7089526B381E090E040
S1130750062E02C0880F991F0A94E2F730E0822324
S1130760932302C0959587956A95E2F7089523B37C
S113077081E090E0062E02C0880F991F0A94E2F7E8
S113078030E08223932302C0959587956A95E2F71A
S1130790089520B381E090E0062E02C0880F991FCF
S11307A00A94E2F730E08223932302C0959587955B
S11307B06A95E2F7089580E00895823459F018F4B8
S11307C0813431F00895833439F0843439F0089554
S11307D06ABB089567BB089564BB089561BB08951F
S11307E0823459F018F4813431F00895833439F0A7
S11307F0843439F008956BBB089568BB089565BBD4
S1130800089562BB0895823419F118F4813439F0E3
S113081008958334B1F1843409F44CC0089541300F
S113082059F42BB381E090E002C0880F991F6A95B8
S1130830E2F7822B8BBB08952BB381E090E002C0DA
S1130840880F991F6A95E2F7809582238BBB0895E0
S1130850413059F428B381E090E002C0880F991F19
S11308606A95E2F7822B88BB089528B381E090E073
S113087002C0880F991F6A95E2F78095822388BB8E
S11308800895413059F425B381E090E002C0880F07
S1130890991F6A95E2F7822B85BB089525B381E001
S11308A090E002C0880F991F6A95E2F78095822331
S11308B085BB0895413059F422B381E090E002C031
S11308C0880F991F6A95E2F7822B82BB089522B3A1
S11308D081E090E002C0880F991F6A95E2F7809545
S11308E0822382BB08956295607F823479F018F484
S11308F0813431F00895833479F0843499F0089583
S11309008BB38F708BBB8BB3862B8BBB88B38F70F1
S113091088BB88B3862B88BB85B38F7085BB85B3B2
S1130920862B85BB82B38F7082BB82B3682B62BB7C
S1130930089541E060E081E40E9418038FE99FE09C
S11309400197F1F700C0000040E060E081E40E94FC
S113095018038FE99FE00197F1F700C000000895A4
S1130960CF93C82F682F62956F7081E40E9473043F
S113097040E062E081E40E9418030E9499046C2F15
S113098081E40E94730440E062E081E40E94180361
S11309900E9499048FEC97E00197F1F700C00000E2
S11309A0CF9108952FEF81EE94E021508040904044
S11309B0E1F700C0000041E064E081E40E94A80285
S11309C041E065E081E40E94A80241E066E081E440
S11309D00E94A80241E067E081E40E94A80241E08D
S11309E060E081E40E94A80241E061E081E40E94A9
S11309F0A80241E062E081E40E94A80240E061E0D4
S1130A0081E40E94180382E00E94B0048FE19EE416
S1130A100197F1F700C0000088E20E94B0048FEC57
S1130A2097E00197F1F700C000008EE00E94B00447
S1130A308FEC97E00197F1F700C0000081E00E947D
S1130A40B0048FE19EE40197F1F700C0000086E056
S1130A500E94B0048FEC97E00197F1F700C000000A
S1130A600895CF93C82F682F62956F7081E40E9418
S1130A70730441E062E081E40E9418030E94990437
S1130A806C2F81E40E94730441E062E081E40E94DF
S1130A9018030E9499048FEC97E00197F1F700C0C6
S1130AA00000CF910895CF93DF93EC0188818823D0
S1130AB031F021960E94310589918111FBCFDF919C
S1130AC0CF91089581E00E94B0048FE19EE40197E4
S1130AD0F1F700C0000008959FEF980F923070F472
S1130AE09FEF960F903160F4813019F42FE7260FB1
S1130AF008C0823031F42FEB260F03C020E801C078
S1130B0020E8822F0E94B0048FEC97E00197F1F760
S1130B1000C0000008956FEF0E94DD030895CF9395
S1130B20DF93CDB7DEB72A970FB6F894DEBF0FBEBA
S1130B30CDBF9AE0E1EBF0E0DE01119601900D9259
S1130B409A95E1F7E1E0F0E0EC0FFD1FE60FF11DEF
S1130B5060810E94F0032A960FB6F894DEBF0FBEA0
S1130B60CDBFDF91CF91089582B5886082BD85B5F0
S1130B70816085BD85B5846085BD789489B78064BE
S1130B8089BF0895991B79E004C0991F961708F04E
S1130B90961B881F7A95C9F780950895F894FFCF1E
S1130BA03738392F3435362A3132332D41303D2B05
S1130BB07072657373203120746F007365742063E1
S1130BC06C6F636B00686F7572733D2D2D006D69DA
S1130BD06E757465733D2D2D007365636F6E64735C
S1130BE03D2D2D0077726F6E672063686F696365B2
S10F0BF0003F065B4F666D7D077F6F00C1
S9030000FC
